{
  "contractName": "EventEmitter",
  "abi": [
    {
      "constant": true,
      "inputs": [],
      "name": "owner",
      "outputs": [
        {
          "name": "",
          "type": "address"
        }
      ],
      "payable": false,
      "stateMutability": "view",
      "type": "function"
    },
    {
      "inputs": [],
      "payable": false,
      "stateMutability": "nonpayable",
      "type": "constructor"
    },
    {
      "anonymous": false,
      "inputs": [
        {
          "indexed": false,
          "name": "tag",
          "type": "bytes32"
        }
      ],
      "name": "EmittedTag",
      "type": "event"
    },
    {
      "constant": false,
      "inputs": [
        {
          "name": "tag",
          "type": "bytes32"
        }
      ],
      "name": "emitBytes32",
      "outputs": [
        {
          "name": "",
          "type": "bytes32"
        }
      ],
      "payable": false,
      "stateMutability": "nonpayable",
      "type": "function"
    }
  ],
  "bytecode": "0x608060405234801561001057600080fd5b50336000806101000a81548173ffffffffffffffffffffffffffffffffffffffff021916908373ffffffffffffffffffffffffffffffffffffffff1602179055507f1bc4d1a1b655909b5bf6411e0712a59abd87875beeb08a5255f17a374bd2f52b60405180807f6372656174656400000000000000000000000000000000000000000000000000815250602001905060405180910390a161018f806100b76000396000f30060806040526004361061004c576000357c0100000000000000000000000000000000000000000000000000000000900463ffffffff16806333311ef3146100515780638da5cb5b1461009e575b600080fd5b34801561005d57600080fd5b5061008060048036038101908080356000191690602001909291905050506100f5565b60405180826000191660001916815260200191505060405180910390f35b3480156100aa57600080fd5b506100b361013e565b604051808273ffffffffffffffffffffffffffffffffffffffff1673ffffffffffffffffffffffffffffffffffffffff16815260200191505060405180910390f35b60007f1bc4d1a1b655909b5bf6411e0712a59abd87875beeb08a5255f17a374bd2f52b8260405180826000191660001916815260200191505060405180910390a1819050919050565b6000809054906101000a900473ffffffffffffffffffffffffffffffffffffffff16815600a165627a7a7230582052de420bffe7ff7249b64312a5c1e09fab8d7db5f6cdc91793838f9a5c8e93b10029",
  "source": "pragma solidity ^0.4.19;\n\ncontract EventEmitter {\n\n    address public owner;\n\n    constructor () public {\n        owner = msg.sender;\n        emit EmittedTag(\"created\");\n    }\n\n    event EmittedTag(bytes32 tag);\n\n    function emitBytes32(bytes32 tag) public returns (bytes32){\n        emit EmittedTag(tag);\n        return tag;\n    }\n}\n\n",
  "sourcePath": "/Users/orie/Desktop/Transmute/transmute-tutorials/transmute-framework-light/contracts/EventEmitter.sol",
  "compiler": {
    "name": "solc",
    "version": "0.4.24+commit.e67f0147.Emscripten.clang"
  },
  "schemaVersion": "2.0.1",
  "updatedAt": "2018-09-14T21:50:42.353Z"
}